{"abi":[{"type":"function","name":"getNonce","inputs":[{"name":"user","type":"address","internalType":"address"}],"outputs":[{"name":"","type":"uint256","internalType":"uint256"}],"stateMutability":"view"},{"type":"function","name":"incrementNonce","inputs":[{"name":"user","type":"address","internalType":"address"}],"outputs":[],"stateMutability":"nonpayable"},{"type":"function","name":"isCreatorVerified","inputs":[{"name":"user","type":"address","internalType":"address"}],"outputs":[{"name":"","type":"bool","internalType":"bool"}],"stateMutability":"view"},{"type":"function","name":"isVerifiedCreator","inputs":[{"name":"","type":"address","internalType":"address"}],"outputs":[{"name":"","type":"bool","internalType":"bool"}],"stateMutability":"view"},{"type":"function","name":"nonces","inputs":[{"name":"","type":"address","internalType":"address"}],"outputs":[{"name":"","type":"uint256","internalType":"uint256"}],"stateMutability":"view"},{"type":"function","name":"verifyCreator","inputs":[{"name":"user","type":"address","internalType":"address"}],"outputs":[],"stateMutability":"nonpayable"},{"type":"event","name":"CreatorVerified","inputs":[{"name":"user","type":"address","indexed":true,"internalType":"address"}],"anonymous":false},{"type":"event","name":"NonceIncremented","inputs":[{"name":"user","type":"address","indexed":true,"internalType":"address"},{"name":"newNonce","type":"uint256","indexed":false,"internalType":"uint256"}],"anonymous":false}],"bytecode":{"object":"0x6080604052348015600e575f5ffd5b506105218061001c5f395ff3fe608060405234801561000f575f5ffd5b5060043610610060575f3560e01c80632d0335ab1461006457806350dcf827146100945780637ecebe00146100c457806398dd1b65146100f4578063e95177fe14610110578063f5743c4c14610140575b5f5ffd5b61007e600480360381019061007991906103fc565b61015c565b60405161008b919061043f565b60405180910390f35b6100ae60048036038101906100a991906103fc565b6101a1565b6040516100bb9190610472565b60405180910390f35b6100de60048036038101906100d991906103fc565b6101be565b6040516100eb919061043f565b60405180910390f35b61010e600480360381019061010991906103fc565b6101d2565b005b61012a600480360381019061012591906103fc565b61026c565b6040516101379190610472565b60405180910390f35b61015a600480360381019061015591906103fc565b6102be565b005b5f5f5f8373ffffffffffffffffffffffffffffffffffffffff1673ffffffffffffffffffffffffffffffffffffffff1681526020019081526020015f20549050919050565b6001602052805f5260405f205f915054906101000a900460ff1681565b5f602052805f5260405f205f915090505481565b6001805f8373ffffffffffffffffffffffffffffffffffffffff1673ffffffffffffffffffffffffffffffffffffffff1681526020019081526020015f205f6101000a81548160ff0219169083151502179055508073ffffffffffffffffffffffffffffffffffffffff167ff29712ea7553106dc04213b4a8b2d4bd706623bddf1d92ab875d278700e7722560405160405180910390a250565b5f60015f8373ffffffffffffffffffffffffffffffffffffffff1673ffffffffffffffffffffffffffffffffffffffff1681526020019081526020015f205f9054906101000a900460ff169050919050565b60015f5f8373ffffffffffffffffffffffffffffffffffffffff1673ffffffffffffffffffffffffffffffffffffffff1681526020019081526020015f205f82825461030a91906104b8565b925050819055508073ffffffffffffffffffffffffffffffffffffffff167fa82a649bbd060c9099cd7b7326e2b0dc9e9af0836480e0f849dc9eaa79710b3b5f5f8473ffffffffffffffffffffffffffffffffffffffff1673ffffffffffffffffffffffffffffffffffffffff1681526020019081526020015f2054604051610393919061043f565b60405180910390a250565b5f5ffd5b5f73ffffffffffffffffffffffffffffffffffffffff82169050919050565b5f6103cb826103a2565b9050919050565b6103db816103c1565b81146103e5575f5ffd5b50565b5f813590506103f6816103d2565b92915050565b5f602082840312156104115761041061039e565b5b5f61041e848285016103e8565b91505092915050565b5f819050919050565b61043981610427565b82525050565b5f6020820190506104525f830184610430565b92915050565b5f8115159050919050565b61046c81610458565b82525050565b5f6020820190506104855f830184610463565b92915050565b7f4e487b71000000000000000000000000000000000000000000000000000000005f52601160045260245ffd5b5f6104c282610427565b91506104cd83610427565b92508282019050808211156104e5576104e461048b565b5b9291505056fea26469706673582212209ee53c69c38ecd8b8a962acbae164a0f3e78bfa10e7e2a7138aa1b4c8690cac964736f6c634300081e0033","linkReferences":{}},"methodIdentifiers":{"getNonce(address)":"2d0335ab","incrementNonce(address)":"f5743c4c","isCreatorVerified(address)":"e95177fe","isVerifiedCreator(address)":"50dcf827","nonces(address)":"7ecebe00","verifyCreator(address)":"98dd1b65"},"id":23}